{
  "contractName": "onChain",
  "abi": [
    {
      "inputs": [
        {
          "internalType": "address",
          "name": "_pairAddress",
          "type": "address"
        }
      ],
      "stateMutability": "nonpayable",
      "type": "constructor"
    },
    {
      "anonymous": false,
      "inputs": [
        {
          "indexed": true,
          "internalType": "address",
          "name": "previousOwner",
          "type": "address"
        },
        {
          "indexed": true,
          "internalType": "address",
          "name": "newOwner",
          "type": "address"
        }
      ],
      "name": "OwnershipTransferred",
      "type": "event"
    },
    {
      "inputs": [],
      "name": "owner",
      "outputs": [
        {
          "internalType": "address",
          "name": "",
          "type": "address"
        }
      ],
      "stateMutability": "view",
      "type": "function",
      "constant": true
    },
    {
      "inputs": [],
      "name": "renounceOwnership",
      "outputs": [],
      "stateMutability": "nonpayable",
      "type": "function"
    },
    {
      "inputs": [
        {
          "internalType": "address",
          "name": "newOwner",
          "type": "address"
        }
      ],
      "name": "transferOwnership",
      "outputs": [],
      "stateMutability": "nonpayable",
      "type": "function"
    },
    {
      "inputs": [],
      "name": "getEthPriceFeed",
      "outputs": [
        {
          "internalType": "int256",
          "name": "",
          "type": "int256"
        }
      ],
      "stateMutability": "view",
      "type": "function",
      "constant": true
    },
    {
      "inputs": [
        {
          "internalType": "address",
          "name": "pairAddress",
          "type": "address"
        }
      ],
      "name": "setPairAddresses",
      "outputs": [],
      "stateMutability": "nonpayable",
      "type": "function"
    },
    {
      "inputs": [
        {
          "internalType": "uint256",
          "name": "_amount",
          "type": "uint256"
        }
      ],
      "name": "getPrice",
      "outputs": [
        {
          "internalType": "uint256",
          "name": "",
          "type": "uint256"
        }
      ],
      "stateMutability": "view",
      "type": "function",
      "constant": true
    }
  ],
  "bytecode": "0x60806040523480156200001157600080fd5b50604051620013c4380380620013c483398181016040528101906200003791906200024a565b620000576200004b6200016760201b60201c565b6200016f60201b60201c565b600073ffffffffffffffffffffffffffffffffffffffff168173ffffffffffffffffffffffffffffffffffffffff161415620000ca576040517f08c379a0000000000000000000000000000000000000000000000000000000008152600401620000c190620002b8565b60405180910390fd5b80600260006101000a81548173ffffffffffffffffffffffffffffffffffffffff021916908373ffffffffffffffffffffffffffffffffffffffff160217905550738a753747a1fa494ec906ce90e9f37563a8af630e600160006101000a81548173ffffffffffffffffffffffffffffffffffffffff021916908373ffffffffffffffffffffffffffffffffffffffff1602179055505062000339565b600033905090565b60008060009054906101000a900473ffffffffffffffffffffffffffffffffffffffff169050816000806101000a81548173ffffffffffffffffffffffffffffffffffffffff021916908373ffffffffffffffffffffffffffffffffffffffff1602179055508173ffffffffffffffffffffffffffffffffffffffff168173ffffffffffffffffffffffffffffffffffffffff167f8be0079c531659141344cd1fd0a4f28419497f9722a3daafe3b4186f6b6457e060405160405180910390a35050565b60008151905062000244816200031f565b92915050565b6000602082840312156200025d57600080fd5b60006200026d8482850162000233565b91505092915050565b600062000285600c83620002da565b91507f5a45524f5f4144445245535300000000000000000000000000000000000000006000830152602082019050919050565b60006020820190508181036000830152620002d38162000276565b9050919050565b600082825260208201905092915050565b6000620002f882620002ff565b9050919050565b600073ffffffffffffffffffffffffffffffffffffffff82169050919050565b6200032a81620002eb565b81146200033657600080fd5b50565b61107b80620003496000396000f3fe608060405234801561001057600080fd5b50600436106100625760003560e01c8063205e861214610067578063715018a6146100835780638da5cb5b1461008d578063afa7d1f0146100ab578063e7572230146100c9578063f2fde38b146100f9575b600080fd5b610081600480360381019061007c91906108a1565b610115565b005b61008b610245565b005b6100956102cd565b6040516100a29190610b5e565b60405180910390f35b6100b36102f6565b6040516100c09190610b79565b60405180910390f35b6100e360048036038101906100de9190610942565b6103b5565b6040516100f09190610c14565b60405180910390f35b610113600480360381019061010e91906108a1565b610620565b005b61011d610718565b73ffffffffffffffffffffffffffffffffffffffff1661013b6102cd565b73ffffffffffffffffffffffffffffffffffffffff1614610191576040517f08c379a000000000000000000000000000000000000000000000000000000000815260040161018890610bf4565b60405180910390fd5b600073ffffffffffffffffffffffffffffffffffffffff168173ffffffffffffffffffffffffffffffffffffffff161415610201576040517f08c379a00000000000000000000000000000000000000000000000000000000081526004016101f890610bd4565b60405180910390fd5b80600260006101000a81548173ffffffffffffffffffffffffffffffffffffffff021916908373ffffffffffffffffffffffffffffffffffffffff16021790555050565b61024d610718565b73ffffffffffffffffffffffffffffffffffffffff1661026b6102cd565b73ffffffffffffffffffffffffffffffffffffffff16146102c1576040517f08c379a00000000000000000000000000000000000000000000000000000000081526004016102b890610bf4565b60405180910390fd5b6102cb6000610720565b565b60008060009054906101000a900473ffffffffffffffffffffffffffffffffffffffff16905090565b600080600160009054906101000a900473ffffffffffffffffffffffffffffffffffffffff1673ffffffffffffffffffffffffffffffffffffffff1663feaf968c6040518163ffffffff1660e01b815260040160a06040518083038186803b15801561036157600080fd5b505afa158015610375573d6000803e3d6000fd5b505050506040513d601f19601f82011682018060405250810190610399919061096b565b5050509150506305f5e100816103af9190610c40565b91505090565b60008082116103f9576040517f08c379a00000000000000000000000000000000000000000000000000000000081526004016103f090610bb4565b60405180910390fd5b6000600260009054906101000a900473ffffffffffffffffffffffffffffffffffffffff1673ffffffffffffffffffffffffffffffffffffffff1663d21220a76040518163ffffffff1660e01b815260040160206040518083038186803b15801561046357600080fd5b505afa158015610477573d6000803e3d6000fd5b505050506040513d601f19601f8201168201806040525081019061049b91906108ca565b9050600080600260009054906101000a900473ffffffffffffffffffffffffffffffffffffffff1673ffffffffffffffffffffffffffffffffffffffff16630902f1ac6040518163ffffffff1660e01b815260040160606040518083038186803b15801561050857600080fd5b505afa15801561051c573d6000803e3d6000fd5b505050506040513d601f19601f8201168201806040525081019061054091906108f3565b506dffffffffffffffffffffffffffff1691506dffffffffffffffffffffffffffff16915060008373ffffffffffffffffffffffffffffffffffffffff1663313ce5676040518163ffffffff1660e01b815260040160206040518083038186803b1580156105ad57600080fd5b505afa1580156105c1573d6000803e3d6000fd5b505050506040513d601f19601f820116820180604052508101906105e591906109e2565b600a6105f19190610d2e565b836105fc9190610e4c565b905081818761060b9190610e4c565b6106159190610caa565b945050505050919050565b610628610718565b73ffffffffffffffffffffffffffffffffffffffff166106466102cd565b73ffffffffffffffffffffffffffffffffffffffff161461069c576040517f08c379a000000000000000000000000000000000000000000000000000000000815260040161069390610bf4565b60405180910390fd5b600073ffffffffffffffffffffffffffffffffffffffff168173ffffffffffffffffffffffffffffffffffffffff16141561070c576040517f08c379a000000000000000000000000000000000000000000000000000000000815260040161070390610b94565b60405180910390fd5b61071581610720565b50565b600033905090565b60008060009054906101000a900473ffffffffffffffffffffffffffffffffffffffff169050816000806101000a81548173ffffffffffffffffffffffffffffffffffffffff021916908373ffffffffffffffffffffffffffffffffffffffff1602179055508173ffffffffffffffffffffffffffffffffffffffff168173ffffffffffffffffffffffffffffffffffffffff167f8be0079c531659141344cd1fd0a4f28419497f9722a3daafe3b4186f6b6457e060405160405180910390a35050565b6000813590506107f381610fa4565b92915050565b60008151905061080881610fa4565b92915050565b60008151905061081d81610fbb565b92915050565b60008151905061083281610fd2565b92915050565b60008135905061084781610fe9565b92915050565b60008151905061085c81610fe9565b92915050565b60008151905061087181611000565b92915050565b6000815190506108868161102e565b92915050565b60008151905061089b81611017565b92915050565b6000602082840312156108b357600080fd5b60006108c1848285016107e4565b91505092915050565b6000602082840312156108dc57600080fd5b60006108ea848285016107f9565b91505092915050565b60008060006060848603121561090857600080fd5b600061091686828701610823565b935050602061092786828701610823565b925050604061093886828701610862565b9150509250925092565b60006020828403121561095457600080fd5b600061096284828501610838565b91505092915050565b600080600080600060a0868803121561098357600080fd5b600061099188828901610877565b95505060206109a28882890161080e565b94505060406109b38882890161084d565b93505060606109c48882890161084d565b92505060806109d588828901610877565b9150509295509295909350565b6000602082840312156109f457600080fd5b6000610a028482850161088c565b91505092915050565b610a1481610ea6565b82525050565b610a2381610eb8565b82525050565b6000610a36602683610c2f565b91507f4f776e61626c653a206e6577206f776e657220697320746865207a65726f206160008301527f64647265737300000000000000000000000000000000000000000000000000006020830152604082019050919050565b6000610a9c600483610c2f565b91507f5a45524f000000000000000000000000000000000000000000000000000000006000830152602082019050919050565b6000610adc600c83610c2f565b91507f5a45524f5f4144445245535300000000000000000000000000000000000000006000830152602082019050919050565b6000610b1c602083610c2f565b91507f4f776e61626c653a2063616c6c6572206973206e6f7420746865206f776e65726000830152602082019050919050565b610b5881610efc565b82525050565b6000602082019050610b736000830184610a0b565b92915050565b6000602082019050610b8e6000830184610a1a565b92915050565b60006020820190508181036000830152610bad81610a29565b9050919050565b60006020820190508181036000830152610bcd81610a8f565b9050919050565b60006020820190508181036000830152610bed81610acf565b9050919050565b60006020820190508181036000830152610c0d81610b0f565b9050919050565b6000602082019050610c296000830184610b4f565b92915050565b600082825260208201905092915050565b6000610c4b82610eb8565b9150610c5683610eb8565b925082610c6657610c65610f68565b5b600160000383147f800000000000000000000000000000000000000000000000000000000000000083141615610c9f57610c9e610f39565b5b828205905092915050565b6000610cb582610efc565b9150610cc083610efc565b925082610cd057610ccf610f68565b5b828204905092915050565b6000808291508390505b6001851115610d2557808604811115610d0157610d00610f39565b5b6001851615610d105780820291505b8081029050610d1e85610f97565b9450610ce5565b94509492505050565b6000610d3982610efc565b9150610d4483610f16565b9250610d717fffffffffffffffffffffffffffffffffffffffffffffffffffffffffffffffff8484610d79565b905092915050565b600082610d895760019050610e45565b81610d975760009050610e45565b8160018114610dad5760028114610db757610de6565b6001915050610e45565b60ff841115610dc957610dc8610f39565b5b8360020a915084821115610de057610ddf610f39565b5b50610e45565b5060208310610133831016604e8410600b8410161715610e1b5782820a905083811115610e1657610e15610f39565b5b610e45565b610e288484846001610cdb565b92509050818404811115610e3f57610e3e610f39565b5b81810290505b9392505050565b6000610e5782610efc565b9150610e6283610efc565b9250817fffffffffffffffffffffffffffffffffffffffffffffffffffffffffffffffff0483118215151615610e9b57610e9a610f39565b5b828202905092915050565b6000610eb182610edc565b9050919050565b6000819050919050565b60006dffffffffffffffffffffffffffff82169050919050565b600073ffffffffffffffffffffffffffffffffffffffff82169050919050565b6000819050919050565b600063ffffffff82169050919050565b600060ff82169050919050565b600069ffffffffffffffffffff82169050919050565b7f4e487b7100000000000000000000000000000000000000000000000000000000600052601160045260246000fd5b7f4e487b7100000000000000000000000000000000000000000000000000000000600052601260045260246000fd5b60008160011c9050919050565b610fad81610ea6565b8114610fb857600080fd5b50565b610fc481610eb8565b8114610fcf57600080fd5b50565b610fdb81610ec2565b8114610fe657600080fd5b50565b610ff281610efc565b8114610ffd57600080fd5b50565b61100981610f06565b811461101457600080fd5b50565b61102081610f16565b811461102b57600080fd5b50565b61103781610f23565b811461104257600080fd5b5056fea2646970667358221220a1387e1ff3b86b780181f23ee788374d5cc71210bb6b212966338cc745d170cd64736f6c63430008000033",
  "immutableReferences": {},
  "source": "// SPDX-License-Identifier: MIT \npragma solidity ^0.8.0;\nimport \"./chainlink/interface/AggregatorV3Interface.sol\";\nimport \"./uniswap/Interface/IUniswapV2Pair.sol\";\nimport \"@openzeppelin/contracts/access/Ownable.sol\";\nimport \"@openzeppelin/contracts/token/ERC20/extensions/IERC20Metadata.sol\";\n\n// https://docs.chain.link/docs/ethereum-addresses/\n// https://docs.chain.link/docs/ethereum-addresses/#Rinkeby%20Testnet\n\ncontract onChain is Ownable {\n\n    AggregatorV3Interface private usdETHPriceFeed;\n    IUniswapV2Pair private pair;\n    uint private amount;\n\n    constructor (address _pairAddress) {\n        // require( address(_usdEth) != address(0) , \"ZERO_ADDRESS\");\n        require( _pairAddress != address(0) , \"ZERO_ADDRESS\");\n        pair = IUniswapV2Pair(_pairAddress);\n        usdETHPriceFeed = AggregatorV3Interface(0x8A753747A1Fa494EC906cE90E9f37563A8AF630e);\n    }\n\n    function getEthPriceFeed () external view returns (int) {\n        (,int price,,,) = usdETHPriceFeed.latestRoundData();\n        return price / 1e8; // 10 ** 8\n    }\n\n    // address :  0x7e8d0e1ad361eba94abc06898f52d9e2c4cda04b LP:: ETH-Dai\n\n    function setPairAddresses (address pairAddress) external onlyOwner {\n        require(address(pairAddress) != address(0), \"ZERO_ADDRESS\");\n        pair = IUniswapV2Pair(pairAddress);\n    }\n\n    function getPrice(uint _amount) external view returns(uint){\n        require(_amount > 0, \"ZERO\");\n        IERC20Metadata tokenEthUsdc = IERC20Metadata(pair.token1());\n        (uint usd  , uint weth,) = pair.getReserves();\n        uint res  = usd*(10 ** tokenEthUsdc.decimals());\n        return((_amount * res )/weth); \n    }\n\n}",
  "sourcePath": "/Users/pcanw/Documents/columbia examples/cookdapp/dapp/contracts/onChain.sol",
  "compiler": {
    "name": "solc",
    "version": "0.8.0+commit.c7dfd78e.Emscripten.clang"
  },
  "schemaVersion": "3.3.4",
  "updatedAt": "2021-12-06T15:22:28.738Z",
  "networkType": "ethereum",
  "devdoc": {
    "kind": "dev",
    "methods": {
      "owner()": {
        "details": "Returns the address of the current owner."
      },
      "renounceOwnership()": {
        "details": "Leaves the contract without owner. It will not be possible to call `onlyOwner` functions anymore. Can only be called by the current owner. NOTE: Renouncing ownership will leave the contract without an owner, thereby removing any functionality that is only available to the owner."
      },
      "transferOwnership(address)": {
        "details": "Transfers ownership of the contract to a new account (`newOwner`). Can only be called by the current owner."
      }
    },
    "version": 1
  },
  "userdoc": {
    "kind": "user",
    "methods": {},
    "version": 1
  }
}